:020000022000DC
:106000000000042019620200016202000362020023
:10601000056202000762020009620200000000003F
:106020000000000000000000000000000B62020001
:106030000D620200000000000F6202001162020007
:106040006578020013620200817E02001362020082
:106050001362020013620200997B020013620200C5
:106060001362020013620200136202001362020054
:106070001362020013620200136202001362020044
:1060800013620200E9A00200136202001362020020
:1060900029A1020013620200C5CD020013620200B2
:1060A0001362020013620200136202001362020014
:1060B00013620200136202000000000000000000F2
:1060C00013620200136202001362020013620200F4
:1060D00013620200136202001362020013620200E4
:1060E000136202001362020013620200000000004B
:1060F00000000000136202000000000013620200B2
:10610000000000000000000000000000000000008F
:10611000000000000000000000000000000000007F
:10612000000000000000000000000000000000006F
:10613000000000000000000000000000000000005F
:10614000000000000000000000000000000000004F
:10615000000000000000000000000000000000003F
:10616000000000000000000000000000000000002F
:10617000000000000000000000000000000000001F
:10618000000000000000000000000000000000000F
:1061900000000000000000000000000000000000FF
:1061A00000000000000000000000000000000000EF
:1061B00000000000000000000000000000000000DF
:1061C00000000000000000000000000000000000CF
:1061D00000000000000000000000000000000000BF
:1061E00000000000000000000000000000000000AF
:1061F000000000000000000000000000000000009F
:10620000FEE7FEE7FEE7FEE7FEE7FEE7FEE7FEE766
:10621000FEE7FEE7704700BF1048804710484FF088
:106220000701884385460F4880470F48016841F4BD
:1062300070010160BFF34F8FBFF36F8F00F01CB888
:106240000A480B490B4A884207D0521A05D00378F6
:1062500001300B700131013AF9D17047156202002B
:10626000000004206968020088ED00E038D50200D3
:10627000701D0020701D0020314932480A1A02D0DA
:10628000072291438D46304930480A1A06D007222A
:10629000914381F30988022282F314882C482D4906
:1062A0002D4A00F03CF82D482D492E4A00F037F8D1
:1062B0002D482E492E4A00F032F82E482E492F4AFA
:1062C00000F02DF82E482F492F4A00F028F82F48CB
:1062D0002F49304A00F023F82F483049304A00F067
:1062E0001EF830483049002200F024F82F48304989
:1062F000002200F01FF82F4A90471F481F4988428C
:1063000005D00268043003B4904703BCF7E70020CF
:106310008646EC4600200021274A9047FEE7884247
:1063200007D0521A05D0037801300B700131013AC1
:10633000F9D17047884202D002700130FAE7704705
:106340000000042000E003200000042000000420DE
:1063500034EA0200701D0020E41D0020BC6302002E
:10636000BC63020072D4020034EA0200701D0020F7
:10637000701D002038D5020038D5020038D5020043
:1063800038D5020038D5020038D5020038D50200D1
:1063900038D5020031EA0200A8EA0200E41D00201C
:1063A000E41D0020E41D00202829002028290020C9
:0C63B0002829002041620200C1670200A1
:1063BC0000B583B00190019B1B682F2B04D90B49AE
:1063CC004FF4F37003F0A5FF019B1B681F2B02D841
:1063DC004FF0A04306E0019B1B6803F01F02019BDA
:1063EC001A60034B184603B05DF804FB38D5020065
:1063FC000003005000B585B0019001AB1846FFF7C3
:10640C00D7FF0390019B012202FA03F3194603986C
:10641C0000F004F800BF05B05DF804FB82B00190F9
:10642C000091019B009AC3F80C2500BF02B0704785
:10643C0000B583B0084800F0CBFD0190019B0093A0
:10644C00009B002B04D0054A3721009803F0AEF9CD
:10645C0000BF03B05DF804FBEC1D002064D5020006
:10646C0000B587B06B4610220021184606F0A8FF35
:10647C0000238DF8043001238DF80C306B4600227C
:10648C001946094800F052FD0590059B0493049BA6
:10649C00002B04D0054A4521049803F087F900BF6E
:1064AC0007B05DF804FB00BFEC1D002064D50200B2
:1064BC0000B585B001900091019B04330393019BBF
:1064CC001B881D2B2BD1019B186A019B9B8C0922CD
:1064DC00194600F0F3FB0290029B002B21D0032203
:1064EC001249029806F09CFF0346002B19D1072293
:1064FC0002990F4806F02EFF0D4B0022DA710D4A5F
:10650C000D4BD31ADB081B0443F00303084A0B4959
:10651C00184605F00FFD0D20FFF76CFF01E000BFE2
:10652C0000E000BF00BF05B05DF804FBB0D5020071
:10653C00E41D0020B4D402008CD40200A4D50200C7
:10654C0000B587B006F0B6FB0590059B0493049B41
:10655C00002B04D0144A6A21049803F027F9002375
:10656C00019301AB1946012006F05CFC0590059BDC
:10657C000393039B002B04D00B4A7021039803F068
:10658C0015F901AB184606F03FFD0590059B0293EB
:10659C00029B002B04D0044A7421029803F006F9E4
:1065AC0000BF07B05DF804FB64D5020000B583B0F2
:1065BC000190019B1B682F2B04D90B494FF4F370EE
:1065CC0003F0A7FE019B1B681F2B02D84FF0A043C2
:1065DC0006E0019B1B6803F01F02019B1A60034B32
:1065EC00184603B05DF804FBB4D50200000300505C
:1065FC0000B585B00190084611461A4603468DF841
:10660C0003300B468DF8023013468DF8013001AB88
:10661C001846FFF7CBFF03909DF803209DF802303E
:10662C005B001A439DF801309B001A439DF818300B
:10663C001B0242EA03019DF81C301B04019A19430A
:10664C00039B02F5E07243F8221000BF05B05DF821
:10665C0004FB00B585B00390002301930023009345
:10666C000023012201210398FFF7C2FF00BF05B0F0
:10667C005DF804FB00B585B003900B468DF80B302C
:10668C009DF80B3000220192002200920022002182
:10669C000398FFF7ADFF00BF05B05DF804FB00B534
:1066AC0085B0019001AB1846FFF780FF0390019B6A
:1066BC00012202FA03F31946039800F021F800BFF7
:1066CC0005B05DF804FB00B585B0019001AB184630
:1066DC00FFF76CFF0390039800F00AF80246019B49
:1066EC0022FA03F303F00103184605B05DF804FB2E
:1066FC0082B00190019BD3F81035184602B0704758
:10670C0082B001900091019B009AC3F8082500BF4C
:10671C0002B0704700B583B04FF40041002005F083
:10672C001BF90190019B0093009B002B04D0054AA0
:10673C002F21009803F03AF805F0A4F800BF03B03D
:10674C005DF804FBE0D5020000B583B003F0ECFC6F
:10675C000190019B0093009B002B04D0044A38212C
:10676C00009803F023F800BF03B05DF804FB00BFF2
:10677C00E0D5020000B583B004F048FD0190019B08
:10678C000093009B002B04D0044A4021009803F096
:10679C000DF800BF03B05DF804FB00BFE0D50200AC
:1067AC0008B505F0FBFB0346002BFAD104F044FDC1
:1067BC0000BF08BD08B5FFF7ADFFFFF7C5FFFFF73A
:1067CC00D9FFFFF7BDFEFFF74BFE0D20FFF741FF92
:1067DC000D20FFF764FF03210B20FFF74BFF0C4A42
:1067EC000C4BD31ADB081B0443F003030A4918466D
:1067FC0005F092FBFFF71CFEFFF7D2FF0B20FFF713
:10680C0062FF0346002BF7D10D20FFF748FFF3E79B
:10681C00B4D402008CD402001CD60200BFF34F8FFC
:10682C0000BF074BDB6803F4E0620549054B1343DB
:10683C00CB60BFF34F8F00BF00BF00BFFCE700BFB2
:10684C0000ED00E00400FA05024B034A1A6000BF99
:10685C00704700BF701D00200090D00308B500F0F9
:10686C0027F90346002B0ED04FF080430022C3F8CB
:10687C000C214FF080430022C3F810214FF08043CD
:10688C000022C3F8382500F037F90346002B76D0E8
:10689C004FF080537D4AD3F80434C2F820354FF0C2
:1068AC0080537A4AD3F80834C2F824354FF0805319
:1068BC00764AD3F80C34C2F828354FF08053734A1B
:1068CC00D3F81034C2F82C354FF080536F4AD3F8FC
:1068DC001434C2F830354FF080536C4AD3F8183466
:1068EC00C2F834354FF08053684AD3F81C34C2F8E0
:1068FC0040354FF08053654AD3F82034C2F8443504
:10690C004FF08053614AD3F82434C2F848354FF025
:10691C0080535E4AD3F82834C2F84C354FF080537C
:10692C005A4AD3F82C34C2F850354FF08053574A9A
:10693C00D3F83034C2F854354FF08053534AD3F85F
:10694C003434C2F860354FF08053504AD3F83834A1
:10695C00C2F864354FF080534C4AD3F83C34C2F83B
:10696C0068354FF08053494AD3F84034C2F86C353F
:10697C004FF08053454AD3F84434C2F8703500F0D8
:10698C00DFF80346002B02D0414B424A1A6000F05C
:10699C00E9F80346002B03D03F4BFB22C3F8182524
:1069AC0000F0F2F80346002B0AD03C4B1B6823F096
:1069BC000F023B4B1B6803F00F03384913430B606A
:1069CC0000F0F4F80346002B03D0364B4FF4007262
:1069DC001A6000F0FDF80346002B0DD04FF08043F9
:1069EC00D3F8003403F00103002B05D04FF08043A3
:1069FC006FF00102C3F800242B4BD3F888302A4ADD
:106A0C0043F47003C2F88830BFF34F8F00BFBFF35D
:106A1C006F8F00BF4FF01023D3F80032002B05DB33
:106A2C004FF01023D3F80432002B2BDA1F4B01222A
:106A3C00C3F8042500BF1D4BD3F80034002BFAD04B
:106A4C004FF010231222C3F8002200BF174BD3F8CB
:106A5C000034002BFAD04FF010231222C3F804227A
:106A6C0000BF124BD3F80034002BFAD00F4B00228E
:106A7C00C3F8042500BF0D4BD3F80034002BFAD01B
:106A8C00FFF7CCFEFFF7E0FE00BF08BD00C00040E2
:106A9C008C5600404881030000F00040E40E00409A
:106AAC00580200104096024000ED00E000E001406A
:106ABC000F4B1B68082B17D10E4B1B68002B01D1F9
:106ACC00012312E00B4B1B68012B01D101230CE0BD
:106ADC00084B1B68022B01D1012306E0054B1B68F8
:106AEC00032B01D1012300E001231846704700BF9E
:106AFC0030010010340100100F4B1B68082B17D10C
:106B0C000E4B1B68002B01D1012312E00B4B1B68B1
:106B1C00012B01D101230CE0084B1B68022B01D186
:106B2C00012306E0054B1B68032B01D1012300E078
:106B3C0001231846704700BF3001001034010010CB
:106B4C00064B1B68082B05D1054B1B68002B01D18C
:106B5C00012300E000231846704700BF30010010ED
:106B6C0034010010064B1B68082B05D1054B1B6824
:106B7C00002B01D1012300E000231846704700BF11
:106B8C003001001034010010064B1B68082B05D196
:106B9C00054B1B68002B01D1012300E00023184694
:106BAC00704700BF3001001034010010064B1B6809
:106BBC00082B05D1054B1B68002B01D1012300E0EC
:106BCC0000231846704700BF30010010340100103C
:106BDC000F4B1B68082B17D10E4B1B68002B01D1D8
:106BEC00012312E00B4B1B68012B01D101230CE09C
:106BFC00084B1B68022B01D1012306E0054B1B68D7
:106C0C00032B01D1012300E001231846704700BF7C
:106C1C00300100103401001086B0039001921A4626
:106C2C000B46ADF80A3013468DF80930039B002B48
:106C3C0002D0019B002B01D100233CE00023ADF8D6
:106C4C0016300CE0BDF81630039A13441B789AB238
:106C5C00BDF8163013449BB20133ADF81630019BCE
:106C6C001B88BDF816209A4209D3BDF816300133A3
:106C7C00039A13441B789DF809209A4205D0BDF85D
:106C8C001620BDF80A309A42DCD3BDF81620BDF8A8
:106C9C000A309A4201D300230DE0BDF816300233BE
:106CAC009AB2019B1A80BDF81630039A13441B78D4
:106CBC009BB2013B9BB2184606B0704700B585B03D
:106CCC0001900B46ADF8023013468DF801300023CD
:106CDC00ADF80C309DF8013003AABDF802100198F4
:106CEC00FFF79AFF0346ADF80E30BDF80E30002BBF
:106CFC0001D1002304E0BDF80C301A46019B13446B
:106D0C00184605B05DF804FB8ADF704700BF1846D3
:106D1C008BDF704700BF18468CDF704700BF1846EA
:106D2C0000B58DB001900091009B02330993019B3B
:106D3C000C330893019B02330B93019B9B7A8DF8C8
:106D4C002B30019B1B7883F00103DBB2002B21D18C
:106D5C0000F0E7F802AB14220021184606F030FBD5
:106D6C009DF82B300B9A08990998FFF7D5FF0790DF
:106D7C0006238DF80830079B0393079B002B0AD042
:106D8C00019BDB69002B06D0019BDB6902AA104634
:106D9C00984700E000BF0DB05DF804FB00B589B06A
:106DAC000190009103AB14220021184606F008FB59
:106DBC00019B0C330793019800F021F80346002B3C
:106DCC0014D002238DF80C30009B0493019BDB69DB
:106DDC0003AA10469847019B403319460020FFF741
:106DEC0093FF00990198FFF79BFF05E0019B40334F
:106DFC0019460020FFF788FF09B05DF804FB82B04C
:106E0C000190019B1B7B03F01803DBB2082B06D00F
:106E1C00019B1B7B03F01803DBB2182B01D1012360
:106E2C0000E00023184602B0704782B00190019A2E
:106E3C00137B43F004031373019BA022DA81019BA3
:106E4C0050221A82019B00225A82019A137B6FF303
:106E5C00C4031373019B01225A7300BF02B0704725
:106E6C0082B00190019B4FF4C8721A81019B0622DB
:106E7C005A80019B18229A80019B0022DA8000BF65
:106E8C0002B0704700B589B001900091009B0433AB
:106E9C00079302AB14220021184606F091FA079BC7
:106EAC001B78012B12D1019BDB69002B0ED0042324
:106EBC008DF80830019B0C330693079B1B788DF8DB
:106ECC000C30019BDB6902AA1046984700BF09B041
:106EDC005DF804FB00B589B001900091009B043370
:106EEC00079302AB14220021184606F069FA019BA5
:106EFC00DB69002B11D005238DF80830019B0C3376
:106F0C000693079A03AB1068516803C3127A1A7080
:106F1C00019BDB6902AA1046984700BF09B05DF8D7
:106F2C0004FB08B5FFF7F4FE00BF08BD10B584B034
:106F3C00039002910192039B002B01D10E2344E09C
:106F4C00039B019ADA61029B002B2BD0029B1A79CE
:106F5C00039B1A70029B1A7B039B9A72029B1B6801
:106F6C00002B0BD0029B1A68039B0C331446206831
:106F7C006168A26807C3A2891A8002E00398FFF730
:106F8C0054FF029B9B68002B08D0029B9A68039BC2
:106F9C0002331168526819605A600CE00398FFF7CD
:106FAC005FFF08E00398FFF740FF0398FFF758FFD7
:106FBC00039B00221A70039B03F12002039B1A64AB
:106FCC00039B1F22A3F844200023184604B010BDD5
:106FDC0000B589B00190019B002B01D10E2338E044
:106FEC0002AB14220021184606F0EAF9FFF799FFCC
:106FFC000198FFF704FF0346002B0BD0019BDB69C4
:10700C00002B07D001238DF80830019BDB6902AA05
:10701C0010469847019B03F10C02019B4033194623
:10702C001046FFF771FE0790079B082B10D0079BAB
:10703C00002B0DD0094A0A4BD31ADB081B0443F072
:10704C000103079A0749184604F074FF079B00E0F8
:10705C000023184609B05DF804FB00BFBCD4020045
:10706C008CD4020050D6020000B589B0019000917A
:10707C0003AB14220021184606F0A2F907238DF861
:10708C000C30009B04330493009B1B88ADF8143028
:10709C00019B0C330793019BDB69002B04D0019BF4
:1070AC00DB6903AA1046984700BF09B05DF804FBE2
:1070BC0000B587B001900091009B0593019B0833AC
:1070CC000493019B04330393019B1B88103B102BEF
:1070DC0038D801A252F823F0477102005171020016
:1070EC005171020051710200517102005171020084
:1070FC005171020051710200517102005171020074
:10710C0051710200337102005171020029710200A9
:10711C0051710200517102003D71020004990598F1
:10712C00FFF73CFE0FE003990598FFF7ABFE0AE072
:10713C0003990598FFF7CEFE05E003990598FFF734
:10714C0093FF00E000BF00BF07B05DF804FB00BF79
:10715C0082B003468DF807309DF8073003F01F020C
:10716C0006499DF907305B09012000FA02F2203331
:10717C0041F8232000BF02B0704700BF00E100E0DF
:10718C0008B505F0EBFD034683F00103DBB2002BE1
:10719C0003D10549792003F0BCF800F043FB034B05
:1071AC0000229A7000BF08BD7CD60200341E00205D
:1071BC0000B583B000230193144B1B78002B02D035
:1071CC00852301931CE0114B00229A600F4B002287
:1071DC005A600E4B00221A610C4B0022DA600C48EC
:1071EC0000F0E6FA019005F0B9FD034683F00103C7
:1071FC00DBB2002B01D000F001FB044B01221A7012
:10720C00019B184603B05DF804FB00BF341E002040
:10721C00F572020084B00190019B1B680393039BE1
:10722C00002B03D0039B1A68019B1A60039B184622
:10723C0004B0704700B583B0164B1B78002B04D1FB
:10724C0015494FF4857003F064F8124BDB68002B82
:10725C0004D1114940F20B1003F05BF800238DF8B8
:10726C0007300DF10703184603F006F8094BDB68ED
:10727C00013B084AD360074BDB68002B01D1FFF7B9
:10728C007FFF9DF80730184603F00CF800BF03B0E1
:10729C005DF804FB341E00207CD6020000B585B0DE
:1072AC0003468DF807309DF80730002B02D10C4BAC
:1072BC00039301E00B4B03930398FFF7ABFF029092
:1072CC00029B002B06D0029B5B689DF807201046A2
:1072DC009847F1E700BF00BF05B05DF804FB00BFA5
:1072EC003C1E0020441E002000B583B003468DF8E0
:1072FC0007309DF80730002B05D10A4B01225A703C
:10730C000020FFF7CBFF9DF80730012B05D1054B73
:10731C0001229A700120FFF7C1FF00BF03B05DF896
:10732C0004FB00BF341E002000B583B00190009117
:10733C00019B002B05D1054B01225A700020FFF751
:10734C00ADFF00BF03B05DF804FB00BF341E00208E
:10735C0000B585B0034600918DF807309DF80730D5
:10736C00032B29D0032B35DC002B02D0012B04D0AE
:10737C0030E00020FFF7ECFE2DE000238DF80F30FD
:10738C000DF10F03184602F077FF154B1B7883F0B5
:10739C000103DBB2002B01D0FFF70AFF104BDB68B7
:1073AC0001330F4AD3600E4B01229A709DF80F30B7
:1073BC00184602F077FF0EE0094B1B78002B04D126
:1073CC00084940F2452002F0A4FF00F017FAFFF73D
:1073DC0031FF00E000BF00BF05B05DF804FB00BF4B
:1073EC00341E00207CD6020000B589B001900091BB
:1073FC00009B0793019B1B788DF80C30019B5B68FD
:10740C000493019B9B68DBB28DF81430019BDB6805
:10741C000693074A079B52F823300649079A51F8FE
:10742C00221003AA1046984700BF09B05DF804FB70
:10743C00481E0020501E002000B589B0019000911C
:10744C00009B0793019B1B788DF80C30019B5B68AC
:10745C000493019B9B68DBB28DF81430019BDB68B5
:10746C000693074A079B52F823300649079A51F8AE
:10747C00221003AA1046984700BF09B05DF804FB20
:10748C00481E0020501E002030B58FB00390029192
:10749C000192039B1B780C932C490C9B019A41F88D
:1074AC002320029B1A692A490C9B41F823200C9B30
:1074BC00012B07D1029B5B7F002B03D12549762042
:1074CC0002F027FF029B5B7F1946234A0C9B134457
:1074DC000A461A70029B04AC1D460FCD0FC495E8EA
:1074EC000F0084E80F000C9B089300230D93039B63
:1074FC001B781A46184B9B5C002B0DD0039B181D58
:10750C00019B002B01D0154A00E0002204AB194668
:10751C0001F0C2FE0D9014E0039B1B781A460E4B33
:10752C009B5C002B0DD1039B03F10C00019B002BEA
:10753C0001D00B4A00E0002204AB194601F06AF8B6
:10754C000D900D9B18460FB030BD00BF481E00209B
:10755C00501E0020C0D60200581E0020F5730200F9
:10756C004574020082B003468DF807309DF8073051
:10757C0003F01F0205499DF907305B09012000FA51
:10758C0002F241F8232000BF02B0704700E100E096
:10759C0082B0034600918DF807309DF90730002B1F
:1075AC000CDA009BDAB20C499DF8073003F00F039C
:1075BC00043B5201D2B20B441A7609E0009BDAB2BA
:1075CC0006499DF907305201D2B20B4483F80023CF
:1075DC0000BF02B0704700BF00ED00E000E100E02A
:1075EC0082B00190019B1B0B5BB2184602B0704736
:1075FC0000B583B003460A468DF8073013468DF864
:10760C0006309DF80630012B03D99DF80630032B6C
:10761C000BD99DF80630042B03D99DF80630072BA7
:10762C0003D908496B2002F074FE9DF806209DF9E1
:10763C00073011461846FFF7ABFF00BF03B05DF8EB
:10764C0004FB00BF00D7020000B583B003468DF8E1
:10765C0007309DF907301846FFF784FF00BF03B0D1
:10766C005DF804FB82B003468DF807300F4A9DF994
:10767C000730002B00DA1F335B115BB252F823206A
:10768C009DF90730594203F01F0301F01F0158BF49
:10769C004B425BB222FA03F303F00103002B14BF3D
:1076AC0001230023DBB2184602B0704700E100E072
:1076BC0082B001904FF08042019BC2F8083300BFAA
:1076CC0002B0704782B003468DF807309DF8073042
:1076DC0003F1804301221A6000BF02B0704784B0EE
:1076EC000346ADF80630BDF8063003F180430022A6
:1076FC001A60BDF8063003F180431B680393039BAB
:10770C0000BF04B0704782B00346ADF80630BDF838
:10771C00063003F180431B68002B14BF01230023A8
:10772C00DBB2184602B0704782B001904FF0804235
:10773C00019BC2F8183500BF02B070474FF0804370
:10774C00D3F818341B0C03F00103002B14BF0123D6
:10775C000023DBB21846704700B583B006238DF8C2
:10776C0007304FF08040FFF73BFF03461846FFF70A
:10777C0079FF034683F00103DBB2002B13D04FF0EB
:10778C008040FFF72DFF03461A469DF80730194637
:10779C001046FFF72DFF4FF08040FFF721FF034607
:1077AC001846FFF751FF00BF03B05DF804FB000063
:1077BC0000B585B00190019B002B03D10D49A02091
:1077CC0002F0A7FD002303930B4B1B79002B02D077
:1077DC008523039308E0084A019B1360064B0122A2
:1077EC001A71054B00225A71039B184605B05DF8BF
:1077FC0004FB00BF34D702005C1E002008B5074B09
:10780C001B79002B03D10649B92002F082FDFFF74A
:10781C00A3FF0120FFF788FF00BF08BD5C1E0020FE
:10782C0034D7020008B50A4B1B79002B03D1094948
:10783C00F32002F06EFD0C20FFF744FF00BFFFF7B2
:10784C007DFF0346002BFAD100BF00BF08BD00BF6F
:10785C005C1E002034D7020008B54FF48070FFF78F
:10786C0052FF0346002B14D04FF48070FFF737FF04
:10787C000120FFF71DFF114B5B7983F00103DBB295
:10788C00002B06D00D4B01225A710C4B1B680020AB
:10789C0098474FF48270FFF736FF0346002B0AD04F
:1078AC004FF48270FFF71BFF0220FFF701FF034B21
:1078BC001B680120984700BF08BD00BF5C1E00205C
:1078CC0000B583B00346ADF80630BDF80630184657
:1078DC0000F026F803461B68012B0CBF0123002384
:1078EC00DBB2184603B05DF804FB00B585B0034667
:1078FC00ADF80630BDF80630184600F011F8034616
:10790C001A4600231360BDF80630184600F008F83C
:10791C0003461B680393039B00BF05B05DF804FB93
:10792C0082B00346ADF80630BDF8063003F1804353
:10793C0003F5C043184602B07047000082B00190B6
:10794C00034BD3F80423019B1340184602B0704735
:10795C000060004082B00190054A019B03F5A273C0
:10796C0052F823301B0A03F03F03184602B070474D
:10797C000060004082B00190064A019B03F5A2739F
:10798C0052F823301B0C03F00303DBB2184602B091
:10799C00704700BF0060004000B583B00190019BB0
:1079AC001B682F2B04D90B494FF4F37002F0B1FC78
:1079BC00019B1B681F2B02D84FF0A04306E0019BD4
:1079CC001B6803F01F02019B1A60034B184603B09F
:1079DC005DF804FBA0D702000003005000B585B091
:1079EC0001900B468DF8033001AB1846FFF7D4FF1E
:1079FC000390019A039B02F5E07253F82230019A2E
:107A0C0023F44031039B02F5E07243F82210019AF3
:107A1C00039B02F5E07253F822309DF80320120408
:107A2C001146019A1943039B02F5E07243F82210A8
:107A3C0000BF05B05DF804FB00B585B0019001AB4B
:107A4C001846FFF7A9FF0390019A039B02F5E07219
:107A5C0053F822301B0C03F00303DBB2184605B0BD
:107A6C005DF804FB82B00190019BD3F810351846E9
:107A7C0002B0704700B589B0039002910192184A88
:107A8C0005AB92E8030083E80300039A029B1344BE
:107A9C00022B04D9134940F2163002F03AFC039B36
:107AAC00079311E0079B9B0020336B4453F80C3C6D
:107ABC001846FFF7D7FF0246019B1A60019B04335F
:107ACC000193079B01330793039A029B1344079A74
:107ADC009A42E7D300BF00BF09B05DF804FB00BFBA
:107AEC00CCD70200A0D7020084B001900091009B7B
:107AFC000393019BDB080293019B03F007030193A3
:107B0C000122019B02FA03F30399029A0A441278A8
:107B1C001340184604B0704784B001900091009B4C
:107B2C000393019BDB080293019B03F00703019372
:107B3C00039A029B13441B785AB20121019B01FA50
:107B4C0003F35BB2134359B2039A029B1344CAB2B8
:107B5C001A7000BF04B0704782B00190044A019BB8
:107B6C001344303393F90030184602B0704700BF0D
:107B7C00641E002082B00190034A019B52F823300E
:107B8C00184602B0704700BF641E002000B599B0C3
:107B9C000023149306AB00221A605A604FF48073D2
:107BAC00ADF84A30012316930023139321E0BDF85E
:107BBC004A301846FFF784FE0346002B0ED0169869
:107BCC00FFF7BCFE0346002B08D0BDF84A30184620
:107BDC00FFF78BFE149A169B13431493169B5B00B2
:107BEC001693BDF84A300433ADF84A30139B013379
:107BFC001393139B072BDAD94FF4BE70FFF760FE7B
:107C0C000346002B0DD04FF4BE70FFF76EFE149B95
:107C1C0043F00043149306AB1A4602210020FFF7F1
:107C2C0029FF149BDBB2002B29D0012316930023D0
:107C3C00139321E0169A149B1340002B16D0139823
:107C4C00FFF788FE11901398FFF794FE03468DF80A
:107C5C0043301398FFF78EFF0F900F9B002B05D02E
:107C6C009DF843200F9B114611989847169B5B007B
:107C7C001693139B01331393139B072BDAD9149B85
:107C8C00002B80F2F08000238DF85F3004AB0022D3
:107C9C001A605A60002315930AE0159B9B00603311
:107CAC006B444FF0FF3243F8582C159B013315935E
:107CBC00159B012BF1D900238DF85F300023139312
:107CCC0078E06B4A139B1344603393F900308DF8C2
:107CDC003B309DF83B3023F0C0030D93644A139B5B
:107CEC001344603393F90030B3F1FF3F5FD002AB24
:107CFC0019460D98FFF7F8FE0346002B57D09DF858
:107D0C003B309B098DF833300D98FFF725FF034668
:107D1C001846FFF72FFF0B900B9B002B03D19DF800
:107D2C003330032B43D19DF83330032B04D104ABF8
:107D3C0019460D98FFF7F0FE0D98FFF77DFE0346F0
:107D4C008DF82B3006AB19460D98FFF7CDFE099038
:107D5C00099B002B03D09DF82B30022B06D0099BDE
:107D6C00002B24D19DF82B30032B20D19DF83330E0
:107D7C00032B13D19DF82B30022B01D1032300E0F0
:107D8C0002238DF823309DF8233019460D98FFF708
:107D9C0025FE9DF85F3001338DF85F300B9B002B77
:107DAC0005D09DF833200B9B11460D989847139BDB
:107DBC0001331393139B032B83D99DF85F30002B56
:107DCC004CD001238DF85E306B461A460221002000
:107DDC00FFF750FE0023159314E0159B9B006033B6
:107DEC006B4453F8602C159B9B0060336B4453F829
:107DFC00483C9A4203D000238DF85E3005E0159B79
:107E0C0001331593159B012BE7D99DF85E30002BA0
:107E1C0003D000238DF85F3020E0002315931AE087
:107E2C00159B9B0060336B4453F8602C159B9B0097
:107E3C0060336B4443F8482C159B9B0060336B44B8
:107E4C0053F8502C159B9B0060336B4443F8582C13
:107E5C00159B01331593159B012BE1D99DF85F30D0
:107E6C00002B7FF428AF00BF19B05DF804FB00BFF6
:107E7C00641E002008B5064B1B68002B03D1054976
:107E8C00512002F046FA024B1B68984708BD00BF10
:107E9C00D01E002020D8020082B00190019B044A21
:107EAC00934201D1034B00E00023184602B0704707
:107EBC0000200040D01E002000B587B0019000913A
:107ECC00019B002B03D11C49772002F022FA019868
:107EDC00FFF7E2FF0590059B002B25D000238DF8C2
:107EEC00133000238DF80B300DF10B03184602F004
:107EFC00C3F9059B1B79002B03D001238DF813309C
:107F0C0005E0059B009A1A60059B01221A719DF8E9
:107F1C000B30184602F0C6F99DF81330002B03D035
:107F2C0011230393039B02E000230393039B184646
:107F3C0007B05DF804FB00BF20D8020000B585B087
:107F4C000190019B002B03D10A499B2002F0E1F91F
:107F5C000198FFF7A1FF0390039B002B05D0039B17
:107F6C0000221A60039B00221A7100BF05B05DF855
:107F7C0004FB00BF20D8020082B003468DF8073006
:107F8C009DF8073003F01F0205499DF907305B0986
:107F9C00012000FA02F241F8232000BF02B0704722
:107FAC0000E100E082B003468DF807309DF8073001
:107FBC0003F01F0206499DF907305B09012000FA06
:107FCC0002F2203341F8232000BF02B0704700BFFB
:107FDC0000E100E082B0034600918DF807309DF976
:107FEC000730002B0CDA009BDAB20C499DF80730F5
:107FFC0003F00F03043B5201D2B20B441A7609E092
:10800C00009BDAB206499DF907305201D2B20B44FB
:10801C0083F8002300BF02B0704700BF00ED00E002
:10802C0000E100E082B00190019B1B0B5BB2184693
:10803C0002B0704700B583B003460A468DF807308E
:10804C0013468DF806309DF80630012B03D99DF8A8
:10805C000630032B0BD99DF80630042B03D99DF861
:10806C000630072B03D908496B2002F052F99DF812
:10807C0006209DF9073011461846FFF7ABFF00BFED
:10808C0003B05DF804FB00BF64D8020000B583B0F8
:10809C0003468DF807309DF907301846FFF76CFF43
:1080AC0000BF03B05DF804FB00B583B003468DF848
:1080BC0007309DF907301846FFF774FF00BF03B077
:1080CC005DF804FB84B001900B46ADF80230BDF8AE
:1080DC000230019A134400221A60BDF80230019A52
:1080EC0013441B680393039B00BF04B0704782B01A
:1080FC0001900B46ADF80230BDF80230019A1344E2
:10810C001B68002B14BF01230023DBB2184602B0FE
:10811C00704782B001900091019B009AC3F8042330
:10812C0000BF02B0704782B001900091019BD3F860
:10813C000423009B1340002B14BF01230023DBB24C
:10814C00184602B0704782B001900091019B009AD2
:10815C00C3F8082300BF02B0704784B00190019BA4
:10816C00D3F880340393019B039AC3F88024039BB8
:10817C00184604B0704782B00190019B0422C3F8EA
:10818C00002500BF02B0704782B00190019B002215
:10819C00C3F8002500BF02B0704784B00390029171
:1081AC000192039B019AC3F81425039B029AC3F80E
:1081BC000C2500BF04B0704700B583B001904FF0A0
:1081CC00FF324FF0FF310198FFF7E7FF00BF03B01C
:1081DC005DF804FB82B00190019BD3F80C35184676
:1081EC0002B0704782B00190019BD3F81435184649
:1081FC0002B0704782B00190019BD3F80835184645
:10820C0002B0704782B00190019BD3F8103518462C
:10821C0002B0704784B0039002910192039B029AC2
:10822C00C3F80825039B019AC3F8102500BF04B0BE
:10823C00704700B583B001904FF0FF324FF0FF3123
:10824C000198FFF7E7FF00BF03B05DF804FB82B0B5
:10825C000190019BD3F81835DBB2184602B0704779
:10826C0082B001900B468DF803309DF80320019BE2
:10827C00C3F81C2500BF02B0704782B001900B46BA
:10828C008DF803309DF80330019A134401221A60D3
:10829C0000BF02B0704782B001900B468DF80330DE
:1082AC0013468DF802309DF803209DF802301343DD
:1082BC00DBB21A46019BC3F86C2500BF02B07047B5
:1082CC0082B001900091019B009AC3F8242500BF55
:1082DC0002B0704700B583B00190019B1B682F2B37
:1082EC0004D90B494FF4F37002F013F8019B1B688F
:1082FC001F2B02D84FF0A04306E0019B1B6803F034
:10830C001F02019B1A60034B184603B05DF804FB77
:10831C0090D802000003005000B585B001900846CB
:10832C0011461A4603468DF803300B468DF8023081
:10833C0013468DF8013001AB1846FFF7CBFF0390C5
:10834C009DF803209DF802305B001A439DF8013024
:10835C009B001A439DF818301B0242EA03019DF85A
:10836C001C301B04019A1943039B02F5E07243F87D
:10837C00221000BF05B05DF804FB00B585B003907A
:10838C000023019300230093002301220121039871
:10839C00FFF7C2FF00BF05B05DF804FB00B585B068
:1083AC0003900B468DF80B309DF80B300022019298
:1083BC0000220092002200210398FFF7ADFF00BFBE
:1083CC0005B05DF804FB00B585B003900023019364
:1083DC00002300930023012200210398FFF79CFF48
:1083EC0000BF05B05DF804FB00B585B0019001AB92
:1083FC001846FFF76FFF0390019B012202FA03F36B
:10840C001946039800F004F800BF05B05DF804FBB2
:10841C0082B001900091019B009AC3F8082500BF1F
:10842C0002B0704700B583B001900091009B1B68AF
:10843C00B3F1FF3F09D0009B1B681846FFF7D4FF30
:10844C00009B1B681846FFF798FF009B5B68B3F115
:10845C00FF3F05D0009B5B6800211846FFF79EFF8D
:10846C00019B1A68009B9B6919461046FFF728FF71
:10847C00019B1868009B597D009B1B7D1A46FFF7DA
:10848C000AFF019B1868009B1968009B5B681A46E1
:10849C00FFF783FE009B1B7D012B22D1009B9B6869
:1084AC00B3F1FF3F05D0009B9B6800211846FFF7F6
:1084BC0075FF009BDB68B3F1FF3F09D0009BDB68C5
:1084CC001846FFF791FF009BDB681846FFF755FF36
:1084DC00019B1868009BD968009B9B681A46FFF7A4
:1084EC0099FE00BF03B05DF804FB000000B583B03B
:1084FC0001900B468DF80330019B1B684FF48E7175
:10850C001846FFF7DFFD019B1B684FF4A27118465C
:10851C00FFF7D8FD019B1B680E491846FFF7F9FDC4
:10852C00019B1B681846FFF77DFD03461A469DF814
:10853C00033019461046FFF77DFD019B1B6818465A
:10854C00FFF770FD03461846FFF7A0FD00BF03B010
:10855C005DF804FB8000020000B583B00190019B24
:10856C001B6808491846FFF7EEFD019B1B6818466F
:10857C00FFF758FD03461846FFF796FD00BF03B002
:10858C005DF804FB8402020000B587B00190019BEA
:10859C001B681846FFF71EFE0590019B1B681846CA
:1085AC00FFF720FE0490019B1B681846FFF722FE84
:1085BC000390019B1B681846FFF724FE0290019B59
:1085CC001B681846FFF7F8FD019B1B681846FFF760
:1085DC0030FE059BB3F1FF3F02D00598FFF7F3FE89
:1085EC00049BB3F1FF3F02D00498FFF7ECFE029B13
:1085FC00B3F1FF3F02D00298FFF7E5FE039BB3F106
:10860C00FF3F02D00398FFF7DEFE00BF07B05DF816
:10861C0004FB000000B587B0039002910192029B0D
:10862C00002B03D12D49AA2001F073FE039B1B796B
:10863C001A462C2302FB03F3294A13440493002308
:10864C000593049B93F82A30002B03D00823059341
:10865C00059B3EE0039B1A68039B1B791946214B33
:10866C0053F8213019461046FFF726FC0346002B21
:10867C0003D011230593059B2BE002990398FFF778
:10868C00D1FE049B019A5A60029B1A69049B1A60E2
:10869C00049B5B68002B05D0029B1B7F194603983B
:1086AC00FFF724FF039B1B681846FFF764FD049B30
:1086BC0000229A61049B0022DA61049B002283F859
:1086CC002920049B00225A61049B012283F82A2052
:1086DC00059B184607B05DF804FB00BFC4D8020028
:1086EC00D81E002004D9020000B585B00190019B72
:1086FC001B791A462C2302FB03F3114A13440393F0
:10870C00019B1B681846FFF73FFD039B5B68002B22
:10871C0002D00198FFF720FF0198FFF735FF019B6E
:10872C001B681846FFF70AFC039B002283F82A20DB
:10873C00039B00225A6000BF05B05DF804FB00BF2C
:10874C00D81E002000B585B0019000914FF48E71B9
:10875C000198FFF7B7FC009B9A68009B1B6A1344B7
:10876C001B788DF80F30009B1B6A5A1C009B1A62F9
:10877C009DF80F3019460198FFF772FD00BF05B048
:10878C005DF804FB00B583B00190009116E0009BEE
:10879C0093F82830DBB2002B01D0002315E04FF406
:1087AC008E710198FFF7A3FC034683F00103DBB243
:1087BC00002BECD100990198FFF7C4FF009B1A6ABB
:1087CC00009B5B699A42EAD30123184603B05DF81B
:1087DC0004FB000000B587B0039002910192039B4B
:1087EC001B791A462C2302FB03F33C4A13440493D3
:1087FC00049B93F82A30012B04D0394940F2151010
:10880C0001F087FD029B002B04D135494FF48B708E
:10881C0001F07FFD019B002B04D1314940F2171070
:10882C0001F077FD039800F05DF80346002B03D0B0
:10883C0011230593059B4CE0049B019A5A61049B00
:10884C00029A9A60049B00221A62049B002283F80D
:10885C00282000230593039B1B684FF48E71184648
:10886C00FFF730FC039B1B6808211846FFF705FD3A
:10887C00039B1B6804991846FFF764FF049B5B6815
:10888C00002B25D1039B1B6804991846FFF77AFF30
:10889C00034683F00103DBB2002B02D00F230593B8
:1088AC0013E000BF039B1B684FF48E711846FFF753
:1088BC001EFC034683F00103DBB2002BF2D1039BB9
:1088CC001B680C211846FFF7D8FC049B00225A6148
:1088DC00059B184607B05DF804FB00BFD81E0020AE
:1088EC00C4D8020082B00190019B1B791946074A3B
:1088FC002C2301FB03F3134414331B68002B14BF0C
:10890C0001230023DBB2184602B07047D81E0020AA
:10891C0010B582B001900091009B9B69002B08D18F
:10892C004FF484710198FFF7CDFB0198FFF78FFC92
:10893C0013E04FF484710198FFF7C4FB009BDA68D5
:10894C00009B5B6AD4180198FFF781FC03462370E7
:10895C00009B5B6A5A1C009B5A6202B010BD00B5AA
:10896C0089B003900291019201238DF81030029B83
:10897C000693019B0593039B5B68039A116804AAF9
:10898C001046984700BF09B05DF804FB00B587B0EE
:10899C000190009100238DF80830009B0493019BFB
:1089AC009B680393019B00225A61019B5B68019AAF
:1089BC00116802AA1046984700BF07B05DF804FB87
:1089CC0000B589B0019000914FF400710198FFF748
:1089DC00AAFB0346002B39D04FF492710198FFF794
:1089EC0086FB0346002B31D04FF492710198FFF7B0
:1089FC0069FB4FF401710198FFF7A5FB009B93F8FD
:108A0C00293083F00103DBB2002B03D00421019841
:108A1C00FFF733FC02238DF808300198FFF79DFB1C
:108A2C0003460593009B9B690493009BDB680393AF
:108A3C00009B00229A61009B0022DA61009B5B681C
:108A4C00009A116802AA1046984752E00421019836
:108A5C00FFF769FB0346002B4BD04FF48471019850
:108A6C00FFF745FB0346002B43D000990198FFF715
:108A7C004FFF009B9A69009B5B6A9A4239D1009B1D
:108A8C00DB69002B19D0009BDB680793009B5B6AAA
:108A9C000693009BDA69009B9A61009B1A69009B04
:108AAC00DA60009B0022DA61009B00225A62079A6E
:108ABC0006990098FFF753FF1BE0009B93F82930B1
:108ACC0083F00103DBB2002B03D004210198FFF7E4
:108ADC00D4FB4FF401710198FFF735FB009B00228A
:108AEC009A61009B596A009BDB681A460098FFF755
:108AFC0036FF4FF48E710198FFF7F9FA0346002BFD
:108B0C0022D0009B1A6A009B5B699A420DD2009B93
:108B1C0093F82830DBB283F00103DBB2002B04D0D6
:108B2C0000990198FFF70EFE0EE04FF48E7101983C
:108B3C00FFF7C8FA009B5B69002B05D0009B5B69B3
:108B4C0019460098FFF722FF4FF4A2710198FFF726
:108B5C00CEFA0346002B1CD04FF4A2710198FFF7FC
:108B6C00B1FA009B93F82930002B03D00021019817
:108B7C00FFF783FB009B9B69002B0AD0009B002214
:108B8C009A61009B596A009BDB681A460098FFF7B4
:108B9C00E6FE00BF09B05DF804FB000008B5034910
:108BAC000348FFF70DFF00BF08BD00BFD81E002013
:108BBC000020004082B003468DF807309DF8073046
:108BCC0003F01F0205499DF907305B09012000FAEB
:108BDC0002F241F8232000BF02B0704700E100E030
:108BEC0082B003468DF807309DF8073003F01F0262
:108BFC0006499DF907305B09012000FA02F2203387
:108C0C0041F8232000BF02B0704700BF00E100E034
:108C1C0082B0034600918DF807309DF90730002B88
:108C2C000CDA009BDAB20C499DF8073003F00F0305
:108C3C00043B5201D2B20B441A7609E0009BDAB223
:108C4C0006499DF907305201D2B20B4483F8002338
:108C5C0000BF02B0704700BF00ED00E000E100E093
:108C6C0082B00190019B03F06043B3F1005F0CBF35
:108C7C0001230023DBB2184602B0704782B001908A
:108C8C00019B1B0B5BB2184602B0704700B583B05A
:108C9C0003460A468DF8073013468DF806309DF8CA
:108CAC000630012B03D99DF80630032B0BD99DF808
:108CBC000630042B03D99DF80630072B03D908493D
:108CCC006B2001F026FB9DF806209DF9073011461C
:108CDC001846FFF79DFF00BF03B05DF804FB00BF13
:108CEC0008D9020000B583B003468DF807309DF912
:108CFC0007301846FFF75EFF00BF03B05DF804FBBA
:108D0C0000B583B003468DF807309DF9073018463F
:108D1C00FFF766FF00BF03B05DF804FB84B0019061
:108D2C000B46ADF80230BDF80230019A1344002214
:108D3C001A60BDF80230019A13441B680393039B1D
:108D4C0000BF04B0704782B001900B46ADF8023002
:108D5C00BDF80230019A13441B68002B14BF012389
:108D6C000023DBB2184602B0704782B0019000912C
:108D7C00019BD3F80022009BDB431A40019BC3F8F4
:108D8C00002200BF02B0704782B001900091019B9D
:108D9C00009AC3F8042300BF02B0704782B0019060
:108DAC000091019B009AC3F8082300BF02B07047E2
:108DBC0084B00190019BD3F880340393019B039AF8
:108DCC00C3F88024039B184604B0704782B001900E
:108DDC00019B0822C3F8002500BF02B0704782B087
:108DEC000190019B0022C3F8002500BF02B0704720
:108DFC0084B0039002910192039B029AC3F80C2554
:108E0C00039B019AC3F8142500BF04B0704700B54A
:108E1C0083B001904FF0FF324FF0FF310198FFF714
:108E2C00E7FF00BF03B05DF804FB82B00190019B2B
:108E3C00D3F80C35184602B0704782B00190019BF4
:108E4C00D3F81435184602B0704782B00190019BDC
:108E5C00D3F80835184602B0704782B00190019BD8
:108E6C00D3F81035184602B0704784B003900291C5
:108E7C000192039B029AC3F80825039B019AC3F83D
:108E8C00102500BF04B0704700B583B001904FF0BF
:108E9C00FF324FF0FF310198FFF7E7FF00BF03B03F
:108EAC005DF804FB82B001900B468DF803309DF801
:108EBC000330019A134401221A6000BF02B07047BC
:108ECC0082B001900B468DF8033013468DF80230BA
:108EDC009DF803209DF802301343DBB21A46019B28
:108EEC00C3F86C2500BF02B0704782B001900091AE
:108EFC00019B009AC3F8242500BF02B0704784B0D0
:108F0C00039002910192029A039BC3F84425039BA0
:108F1C00019AC3F8482500BF04B0704782B0019095
:108F2C00019BD3F84C35184602B0704782B00190C3
:108F3C00019BD3F83C35184602B0704700B583B09E
:108F4C000190019B1B682F2B04D90B494FF4F37034
:108F5C0001F0DFF9019B1B681F2B02D84FF0A043D7
:108F6C0006E0019B1B6803F01F02019B1A60034B78
:108F7C00184603B05DF804FB34D90200000300501E
:108F8C0000B585B00190084611461A4603468DF887
:108F9C0003300B468DF8023013468DF8013001ABCF
:108FAC001846FFF7CBFF03909DF803209DF8023085
:108FBC005B001A439DF801309B001A439DF8183052
:108FCC001B0242EA03019DF81C301B04019A194351
:108FDC00039B02F5E07243F8221000BF05B05DF868
:108FEC0004FB00B585B0039000230193002300938C
:108FFC000023012201210398FFF7C2FF00BF05B037
:10900C005DF804FB00B585B003900B468DF80B3072
:10901C009DF80B30002201920022009200220021C8
:10902C000398FFF7ADFF00BF05B05DF804FB00B57A
:10903C0085B00390002301930023009300230122A9
:10904C0000210398FFF79CFF00BF05B05DF804FBFF
:10905C0000B585B0019001AB1846FFF76FFF039088
:10906C00019B012202FA03F31946039800F004F85D
:10907C0000BF05B05DF804FB82B001900091019B2C
:10908C00009AC3F8082500BF02B0704700B583B042
:10909C0001900091009B1B68B3F1FF3F09D0009B2E
:1090AC001B681846FFF7D4FF009B1B681846FFF798
:1090BC0098FF009B5B68B3F1FF3F05D0009B5B689A
:1090CC0000211846FFF79EFF019B1A68009B9B69C5
:1090DC0019461046FFF709FF019B1868009B597D44
:1090EC00009B1B7D1A46FFF7EBFE019B1868009B4B
:1090FC001968009B5B681A46FFF77AFE009B1B7D84
:10910C00012B22D1009B9B68B3F1FF3F05D0009B44
:10911C009B6800211846FFF775FF009BDB68B3F1D5
:10912C00FF3F09D0009BDB681846FFF791FF009BBF
:10913C00DB681846FFF755FF019B1868009BD96840
:10914C00009B9B681A46FFF790FE00BF03B05DF8CA
:10915C0004FB000000B583B001900B468DF8033082
:10916C00019B1B684FF488711846FFF7D7FD019BD4
:10917C001B684FF490711846FFF7D0FD019B1B68DC
:10918C004FF492711846FFF7C9FD019B1B684FF411
:10919C00A2711846FFF7C2FD019B1B680E491846C9
:1091AC00FFF7F2FD019B1B681846FFF767FD0346AE
:1091BC001A469DF8033019461046FFF767FD019BD0
:1091CC001B681846FFF75AFD03461846FFF78AFD41
:1091DC0000BF03B05DF804FB1003020000B583B0C0
:1091EC000190019B1B6808491846FFF7D7FD019BAE
:1091FC001B681846FFF742FD03461846FFF780FD33
:10920C0000BF03B05DF804FB1003020000B587B08B
:10921C000190019B1B681846FFF707FE0590019B08
:10922C001B681846FFF709FE0490019B1B68184643
:10923C00FFF70BFE0390019B1B681846FFF70DFE12
:10924C000290019B1B681846FFF7E1FD019B1B6810
:10925C001846FFF719FE059BB3F1FF3F02D00598A6
:10926C00FFF7E5FE049BB3F1FF3F02D00498FFF734
:10927C00DEFE029BB3F1FF3F02D00298FFF7D7FE50
:10928C00039BB3F1FF3F02D00398FFF7D0FE00BF62
:10929C0007B05DF804FB000000B587B003900291A5
:1092AC000192029B002B03D12B49CD2001F031F808
:1092BC00039B1B791A461346DB0013449B00274A79
:1092CC001344049300230593049B93F82030002B44
:1092DC0003D008230593059B3AE0039B1A68039B74
:1092EC001B7919461E4B53F8213019461046FEF7D0
:1092FC00E3FD0346002B03D011230593059B27E0C8
:10930C0002990398FFF7C2FE049B019A5A60029BD4
:10931C001A69049B1A60049B5B68002B05D0029BA6
:10932C001B7F19460398FFF715FF039B1B68184614
:10933C00FFF74CFD049B00229A61049B0022DA612A
:10934C00049B00225A61049B012283F82020059B78
:10935C00184607B05DF804FB68D90200041F002012
:10936C00A8D9020000B585B00190019B1B791A4663
:10937C001346DB0013449B00104A13440393019BD8
:10938C001B681846FFF72BFD039B5B68002B02D074
:10939C000198FFF723FF0198FFF738FF019B1B682B
:1093AC001846FEF7CBFD039B002283F82020039B7D
:1093BC0000225A6000BF05B05DF804FB041F0020BA
:1093CC0000B589B0039002910192039B1B791A4658
:1093DC001346DB0013449B004C4A13440493049B38
:1093EC0093F82030012B04D049494FF4927000F0CF
:1093FC0090FF029B002B04D1454940F2251000F050
:10940C0088FF019B002B04D141494FF4937000F06D
:10941C0080FF039B1B79002B03D1019BB3F5803F8D
:10942C0004D33B4940F2271000F073FF0298FFF77A
:10943C0017FC034683F00103DBB2002B03D010238F
:10944C000693069B5EE0039800F064F80346002B3D
:10945C0003D011230693069B54E0049B019A5A6196
:10946C00049B029A9A6000230693039B1B684FF49B
:10947C0090711846FFF752FC039B1B684FF4AC71BC
:10948C001846FFF74BFC039B1868049B9968049BD8
:10949C005B691A46FFF733FD039B1B6808211846CE
:1094AC00FFF700FD049B5B68002B2AD1039B1B6814
:1094BC004FF490711846FFF746FC03468DF81730B1
:1094CC00039B1B684FF4AC711846FFF73CFC03463A
:1094DC008DF81F309DF8173083F00103DBB2002BA1
:1094EC0006D09DF81F3083F00103DBB2002BDDD1D9
:1094FC009DF81F30002B01D00F230693049B0022F4
:10950C005A61069B184609B05DF804FB041F002045
:10951C0068D9020082B00190019B1B791946084A58
:10952C000B46DB000B449B00134414331B68002BCD
:10953C0014BF01230023DBB2184602B0704700BFF2
:10954C00041F002000B589B0039002910192012301
:10955C008DF81030029B0693019B0593039B5B686F
:10956C00039A116804AA1046984700BF09B05DF829
:10957C0004FB00B587B00190009100238DF80830F2
:10958C00009B0493019B9B680393019B00225A61EF
:10959C00019B5B68019A116802AA1046984700BFAC
:1095AC0007B05DF804FB00B589B0019000914FF451
:1095BC0092710198FFF7C7FB0346002B22D04FF4A2
:1095CC0092710198FFF7AAFB02238DF808300198DD
:1095DC00FFF7EEFB034605930198FFF7A7FC034644
:1095EC000493009BDB680393009B00229A61009B11
:1095FC000022DA61009B5B68009A116802AA10468F
:10960C0098473BE04FF488710198FFF79CFB0346A9
:10961C00002B33D04FF488710198FFF77FFB019832
:10962C00FFF784FC0790009B9B69079A9A4225D10F
:10963C00009BDB69002B17D0009BDB680693202175
:10964C000198FFF792FB009BDA69009B9A61009BE3
:10965C001A69009BDA60009B0022DA61069A07996E
:10966C000098FFF76FFF09E0009B00229A61009BB6
:10967C00DB681A4607990098FFF764FF4FF4A27154
:10968C000198FFF760FB0346002B18D04FF4A27132
:10969C000198FFF743FB009B9B69002B0FD0009BAD
:1096AC0000229A61009B0022DA610198FFF73EFCD0
:1096BC000146009BDB681A460098FFF743FF4FF406
:1096CC0090710198FFF73FFB0346002B10D04FF42D
:1096DC0090710198FFF722FB009B5B69002B07D070
:1096EC000198FFF71BFC034619460098FFF741FF52
:1096FC0000BF09B05DF804FB08B503490348FFF748
:10970C0052FF00BF08BD00BF041F00200020004016
:10971C0086B003900291019201238DF817309DF8C9
:10972C001730214A039B13601F4A029B53601E4A49
:10973C00019B9360039B44F20102934213D0039B61
:10974C0044F20202934221D1019B174AD360164B7B
:10975C00DB681B881A46144B9A61134BDB685B68F9
:10976C00114AD36112E0019B0F4A13610E4B1B6926
:10977C009B680D4A53610C4B1B691B680A4A936129
:10978C00094B1B695B68084AD36100BF72B600BF06
:10979C0000BF9DF81730DBB2002BFAD162B600BFC8
:1097AC0000BF06B0704700BF281F002000B583B073
:1097BC0002900091019244F2010071466A4600F059
:1097CC0003F803B000BD00BF00B595B00390029143
:1097DC00019272B600BF039B44F20202934217D06F
:1097EC00039B44F20202934222D8039B44F20102EF
:1097FC00934210D0039B44F20102934218D8039B6E
:10980C00012B17D0039B41F20102934214D00FE0BD
:10981C00019B139311E0019B1293129B596804ABAB
:10982C000A22184603F096FD129B1B68119304E064
:10983C0000BF02E000BF00E000BF019A029903984C
:10984C00FFF766FF00BF15B05DF804FB82B003465E
:10985C008DF807309DF8073003F01F0205499DF97C
:10986C0007305B09012000FA02F241F8232000BF07
:10987C0002B0704700E100E082B003468DF807307B
:10988C009DF8073003F01F0206499DF907305B096C
:10989C00012000FA02F2203341F8232000BF02B06D
:1098AC00704700BF00E100E082B003468DF807303E
:1098BC009DF8073003F01F0206499DF907305B093C
:1098CC00012000FA02F2403341F8232000BF02B01D
:1098DC00704700BF00E100E082B003468DF807300E
:1098EC009DF8073003F01F0206499DF907305B090C
:1098FC00012000FA02F2603341F8232000BF02B0CD
:10990C00704700BF00E100E082B0034600918DF883
:10991C0007309DF90730002B0CDA009BDAB20C49AA
:10992C009DF8073003F00F03043B5201D2B20B44F5
:10993C001A7609E0009BDAB206499DF9073052010C
:10994C00D2B20B4483F8002300BF02B0704700BFB3
:10995C0000ED00E000E100E000B585B00190019B56
:10996C00002B0AD0074B43F001030393019B9B018F
:10997C000293039B0298984700E000BF05B05DF886
:10998C0004FB00BFB0D9020000B583B00190064AB9
:10999C00019BC2F8083506211120FFF7B5FF00BF67
:1099AC0003B05DF804FB00BF0010014008B50D4B7F
:1099BC004FF48032C3F844230A4B4FF48032C3F87F
:1099CC0004231120FFF788FF1120FFF73FFF054B01
:1099DC0001221A602F20FFF7BFFF034B01221A70E0
:1099EC0000BF08BD001001406620002008B5112002
:1099FC00FFF742FF0E4B4FF48032C3F848230C4B59
:109A0C004FF48032C3F80823094B01225A602F20EF
:109A1C00FFF7A2FF064B01229A60064B00221A6048
:109A2C002F20FFF799FF044B00221A7000BF08BDCE
:109A3C00001001405820002066200020024BD3F873
:109A4C0004351846704700BF0010014082B00190E9
:109A5C000091019A009BD31A23F07F43184602B061
:109A6C007047000082B00190034A019BC2F8403558
:109A7C0000BF02B0704700BF0010014086B00190DB
:109A8C00284B1B68002B03D1264A019B136045E031
:109A9C00019B1A68234B1B681B689A4210D8214BF8
:109AAC001B681968019B1A681E4B1B688A1A1A607E
:109ABC001C4B1A68019BDA611A4A019B13602DE05A
:109ACC00019B1B680393174B1B680593154B1B6875
:109ADC00049309E0049B1B68039AD31A0393049B19
:109AEC000593049BDB690493049B002B04D0049B1B
:109AFC001B68039A9A42EDD8049B002B05D0049B5B
:109B0C001A68039BD21A049B1A60019B039A1A6071
:109B1C00019B049ADA61059B019ADA6100BF06B0D9
:109B2C00704700BF5420002000B587B001902A4B2D
:109B3C001B680393284B1B680593059B049308E053
:109B4C00049A019B9A4208D0049B0593049BDB6901
:109B5C000493049B002BF3D100E000BF049B002B6B
:109B6C0001D1002333E0059A049B9A4214D11A4B7D
:109B7C001B68DB69184A1360174B1B68002B0BD151
:109B8C00164B01229A60164B00221A60154B0122CB
:109B9C001A702F20FFF7E0FE049B1B680293049BB6
:109BAC00DA69059BDA61059BDB690493049B002B46
:109BBC0005D0049B1A68029B1A44049B1A60064B3E
:109BCC001B68039A9A4214BF01230023DBB2184688
:109BDC0007B05DF804FB00BF5420002000100140CA
:109BEC00582000206720002008B51120FFF75CFEEC
:109BFC0000BF08BD08B51420FFF756FE00BF08BD16
:109C0C0000B583B00190019B5B69019A9269104683
:109C1C00984700BF03B05DF804FB000000B585B0A9
:109C2C002B4B1B68002B4ED000230193FFF706FF34
:109C3C000246284B1B6819461046FFF707FF029097
:109C4C00234B1B6803931DE0039B1B68029A9A42EB
:109C5C001CD3039B1B68029AD31A0293039B1B68A9
:109C6C00019A13440193039B0093039BDB690393B9
:109C7C00009B1B7C002B05D0009B00221A740098C3
:109C8C00FFF7BEFF039B002BDED100E000BF124BA1
:109C9C001A78124B1B789A420CD1104B1B7801335B
:109CAC00DAB20E4B1A700D4B1B78022B02D10B4BF8
:109CBC0000221A70094B1B781946094A019B42F87D
:109CCC002130FFF797FF00BF05B05DF804FB00BF24
:109CDC005420002058200020642000206520002003
:109CEC005C20002082B00190184B1A78184B1B781E
:109CFC009A4223D0154B1B780133DAB2134B1A70EE
:109D0C00124B1B78022B02D1104B00221A700F4BF6
:109D1C001B781A460F4B53F82220019B1A60019BAB
:109D2C001A680D4B1B6813440B4A13600A4B1B68D3
:109D3C0023F07F43084A1360012303E0019B0022B8
:109D4C001A600023184602B0704700BF6420002040
:109D5C00652000205C2000205820002088B0039053
:109D6C00029101920023079338E0204B1B68069365
:109D7C00069B1B68039A9A4206D2069B1A68039BA1
:109D8C00D21A069B1A602EE0069B1B68039AD31A04
:109D9C000393069B1B68079A13440793069B0022A8
:109DAC001A60124B1B680593069BDB690F4A136004
:109DBC00069BDB68002B11D0029A079B134423F0FF
:109DCC007F42069B5A60069BDA68069B9A60019B51
:109DDC001A68069BDA61019B059A1A60034B1B6893
:109DEC00002BC2D100BF00BF08B070475420002028
:109DFC0000B589B0019000238DF81F30664B1B68AD
:109E0C000593AAE0019B002B05D0019B0693069BB2
:109E1C00DB69019361E0614B1B781A4613465B00CA
:109E2C001344DB005D4A1344043304935B4B1B78EF
:109E3C000133DAB2594B1A70584B1A78574B9B783E
:109E4C009A4202D1554B00221A70049B5B68069310
:109E5C00049B1B78032B1ED0032B7EDC012B1FD005
:109E6C00022B7AD1049B5B681846FFF75DFE034614
:109E7C00002B02D001238DF81F30069B00221A7490
:109E8C006BE0454B1B680393039B00221A74039BE6
:109E9C00DB69414A1360404B1B68002BF1D15CE03D
:109EAC0000BF069B1B7C002B00D056E0049B9A68DD
:109EBC00069B5A60049BDA68069B9A60049B1A699D
:109ECC00069BDA60049B5A69069B9A61344B1B789B
:109EDC00002B02D0069B00225A60069B5A68314B1D
:109EEC001B68D31A23F07F432F4A93420ED8069B4C
:109EFC005B682C4A126811461846FFF7A7FD02460C
:109F0C00069B9B681A44069B1A6017E0254B1A683F
:109F1C00069B5B6819461046FFF798FD0290069B5E
:109F2C009B68029A9A4206D2069B9A68029BD21AA6
:109F3C00069B1A6002E0069B00221A60069B002218
:109F4C005A60069B00229A60069B01221A74069B9B
:109F5C000022DA610698FFF791FD019B002B7FF43C
:109F6C0051AF0E4B1A780D4B5B789A427FF44AAF87
:109F7C009DF81F30002B04D1074B1B68059A9A42A1
:109F8C0001D0012300E0002303F00103DBB21846EB
:109F9C0009B05DF804FB00BF54200020481F0020CE
:109FAC006720002058200020FEFF7F0010B588B0ED
:109FBC000190274B1B68002B44D0254B1B681B685A
:109FCC000793FFF73BFD0690224B1B680593059901
:109FDC000698FFF73BFD0346033304931E4B1B7897
:109FEC0083F00103DBB2002B01D0FFF7DFFC049AF6
:109FFC00079B934238BF1346059A13440593059B60
:10A00C0023F07F4305930598FFF72CFDFFF716FD12
:10A01C00039006990398FFF719FD0346DC1C06997B
:10A02C000598FFF713FD03469C420DD9FFF706FD7B
:10A03C0003461846FFF716FD2F20FFF78DFCFFF7A0
:10A04C00D3FD01E0FFF7D2FC00BF08B010BD00BF8C
:10A05C0054200020582000206620002000B587B036
:10A06C000023019300238DF81730194B1B680493C0
:10A07C00184B1B6803936B461846FFF733FE0346D9
:10A08C008DF80B309DF80B30002B08D0009B01AAEB
:10A09C0004991846FFF762FE01238DF81730019BD7
:10A0AC001846FFF7A5FE0346002B02D001238DF8BE
:10A0BC0017309DF81730002B02D00398FFF776FF6E
:10A0CC00054B00221A7000BF07B05DF804FB00BFFF
:10A0DC0058200020542000206720002008B50E4B8B
:10A0EC000022C3F840210C4B0022C3F844210A4B38
:10A0FC000022C3F84821084B0022C3F84C21064B20
:10A10C000022C3F80021044B0022C3F80421FFF7FE
:10A11C0085FD00BF08BD00BF0010014008B5FFF76A
:10A12C009DFF00BF08BD000008B5FFF75FFC134B97
:10A13C0000221A70114B00225A70104B0B229A708D
:10A14C000F4B00221A600F4B00221A700E4B00228C
:10A15C001A701420FFF7C0FB06211420FFF7D4FB64
:10A16C001420FFF773FB0020FFF70EFCFFF766FCD3
:10A17C000346064A13600023184608BD481F0020FA
:10A18C00542000206420002065200020582000204E
:10A19C0082B0EFF310830093009B019372B600BF63
:10A1AC00019B184602B0704762B600BF00BF7047F3
:10A1BC0000B585B00190FFF7EBFF0390164B9B6841
:10A1CC00002B1BD1144B01229A60144BD3F8802026
:10A1DC00134B1340104A1360104B114AC3F88020E4
:10A1EC000E4BD3F884300C4A53600C4B4FF0FF32BB
:10A1FC00C3F88420019B00221A7002E0019B01220B
:10A20C001A70039B002B01D1FFF7CEFF00231846D9
:10A21C0005B05DF804FB00BF6820002000E100E001
:10A22C00FC06FFBD00B585B003468DF80730104B1A
:10A23C009B68002B16D09DF80730002B12D1FFF72E
:10A24C00A7FF03900B4A0A4B1B681360094A084B83
:10A25C005B685360064B00229A60039B002B01D174
:10A26C00FFF7A2FF0023184605B05DF804FB00BF02
:10A27C006820002000E100E000B583B0019000F000
:10A28C002BF80346012B03D00549432000F041F87D
:10A29C000198FFF78DFF00BF03B05DF804FB00BF12
:10A2AC00B8D9020000B583B003468DF8073000F032
:10A2BC0013F80346012B03D00649512000F029F86E
:10A2CC009DF807301846FFF7ADFF00BF03B05DF8EF
:10A2DC0004FB00BFB8D9020084B0EFF305830193EF
:10A2EC00019BC3F308030393039B002B0DD1EFF3E6
:10A2FC0014830093009B0293029B03F00103002B39
:10A30C000CBF01230023DBB200E00123184604B08C
:10A31C00704700B585B003460091ADF80630BDF826
:10A32C000630ADF80830009B039302AB1A460021AF
:10A33C0044F20200FFF748FA00BF05B05DF804FBD9
:10A34C0010B487B001900091019B009A53E8004F24
:10A35C00104643E8000191F0000FF7D105940490EA
:10A36C000391059B184607B05DF8044B704710B479
:10A37C0087B001900091019B009A53E8004F44EA8A
:10A38C00020043E8000191F0000FF6D1059404900F
:10A39C000391049B184607B05DF8044B704710B44A
:10A3AC0087B001900091019B009A53E8004F04EA9A
:10A3BC00020043E8000191F0000FF6D105940490DF
:10A3CC000391059B184607B05DF8044B704710B419
:10A3DC0087B001900091019B009A53E8004F04EB69
:10A3EC00020043E8000191F0000FF6D105940490AF
:10A3FC000391049B184607B05DF8044B704710B4EA
:10A40C0087B001900091019B009A53E8004FA4EB98
:10A41C00020043E8000191F0000FF6D1059404907E
:10A42C000391049B184607B05DF8044B704700B5C8
:10A43C0083B0019001210198FFF799FF034618465C
:10A44C0003B05DF804FB00B583B0019000210198C6
:10A45C00FFF7A5FF0346184603B05DF804FB0000A8
:10A46C0000B583B001900B468DF80330019B002B97
:10A47C0003D10849E820FFF74CFF019BDA689DF8EF
:10A48C0003300199098A01FB03F31344184603B006
:10A49C005DF804FB00DA020000B583B00190009176
:10A4AC00019B002B03D10849F520FFF732FF009BDD
:10A4BC00019AD2689B1A019A128AB3FBF2F3DBB2AF
:10A4CC00184603B05DF804FB00DA020000B585B055
:10A4DC000190019B002B01D10E234CE0019B1B68CA
:10A4EC00002B03D12649FF20FFF713FF019B5B686C
:10A4FC00002B04D122494FF48070FFF70AFF019B17
:10A50C009B68002B04D11E4940F20110FFF701FF9C
:10A51C00019BDB68002B04D119494FF48170FFF7C4
:10A52C00F8FE019B1B8A002B04D1154940F2031045
:10A53C00FFF7EFFE019B9A68019B5B68D31A8DF8BD
:10A54C000F30019B1B68019A52681A6007E0019B4F
:10A55C001A681368591C11609DF80F201A709DF829
:10A56C000F305A1E8DF80F20002BF0D1019B1B6869
:10A57C0000221A710023184605B05DF804FB00BFD9
:10A58C0000DA020000B585B00190019B002B04D1CC
:10A59C001F494FF49270FFF7BCFE00230393002376
:10A5AC008DF80A300DF10A031846FFF765FE019B82
:10A5BC001B681A68019B5B689A421FD9019B1B6838
:10A5CC001A68013A1A601B681B7819460198FFF744
:10A5DC0047FF0390019B9A68019B1B681B68D31A69
:10A5EC008DF80B30019B1B681B799DF80B209A4250
:10A5FC0004D9019B1B689DF80B201A719DF80A3039
:10A60C001846FFF74FFE039B184605B05DF804FB98
:10A61C0000DA020010B584B001900091019B002B70
:10A62C0004D1154940F24710FFF773FE009B002B35
:10A63C0004D111494FF4A470FFF76BFE009B0393F8
:10A64C0000238DF80B300DF10B031846FFF714FEA9
:10A65C00019B1B681C68621C1A6003990198FFF728
:10A66C001BFF034623709DF80B301846FFF71AFEAC
:10A67C0000BF04B010BD00BF00DA020000B583B00B
:10A68C000190019B002B03D10C493120FFF741FEB7
:10A69C00019B9B68002B0CD0019B5B69019A106994
:10A6AC00019A1168019A92689847019B00229A605E
:10A6BC0000E000BF03B05DF804FB00BF44DA020009
:10A6CC000EB400B584B00190019B002B03D1184946
:10A6DC004220FFF71EFE019B5B69002B03D114493E
:10A6EC004320FFF716FE019B1B68002B03D110497A
:10A6FC004420FFF70EFE019B5B68002B03D10C4935
:10A70C004520FFF706FE059B002B0AD00023039380
:10A71C0006AB039303AB1A460599019800F0B8F900
:10A72C0000E000BF04B05DF804EB03B0704700BF5D
:10A73C0044DA020000B583B001900B468DF803306B
:10A74C009DF803300A2B03D10D210198FFF7F2FF7E
:10A75C00019B1A68019B9B68581C019988601344E3
:10A76C009DF803201A70019B9A68019B5B689A42C2
:10A77C0002D30198FFF782FF00BF03B05DF804FB22
:10A78C0000B587B0039002910192009300230593CA
:10A79C00009B03F00103002B24D00BE0029B013340
:10A7AC000293059B013305939DF8133019460398CA
:10A7BC00FFF7C0FF029B1B788DF813309DF8133008
:10A7CC00002BEBD106E0019B013B01932021039868
:10A7DC00FFF7B0FF019A059B9A422ED9019B002BE3
:10A7EC00F1D12AE0029B002B0BD0029802F082FDE3
:10A7FC00059006E0019B013B019320210398FFF794
:10A80C0099FF019A059B9A420FD9019B002BF1D11C
:10A81C000BE0029B01330293059B013305939DF8DA
:10A82C00133019460398FFF785FF029B1B788DF8B0
:10A83C0013309DF81330002BEBD100BF07B05DF83F
:10A84C0004FB000000B589B00390029101920093C3
:10A85C00029B07930123069307E0079A019BB2FB27
:10A86C00F3F30793069B01330693079A019B9A42D5
:10A87C00F3D2009A069B9A4201D9009B06930B9B3C
:10A88C0003F00103002B22D10A9B002B1FD00B9B42
:10A89C0003F00203002B06D0009B002B03D13023C6
:10A8AC008DF8173002E020238DF8173008E00A9B52
:10A8BC00013B0A939DF8173019460398FFF73AFFAE
:10A8CC000A9B002B03D0069A0A9B9A42EFD30123D2
:10A8DC000793009B012B03D9009B013B009309E0DC
:10A8EC00029A079BB2FBF3F30493049A019B9A42DE
:10A8FC0000D205E0079B019A02FB03F30793E8E7FC
:10A90C00029A079BB2FBF3F30493049B079A02FB96
:10A91C0003F3029AD31A0293154A049B13441B782F
:10A92C0019460398FFF706FF079A019BB2FBF3F356
:10A93C000793079B002BE3D10B9B03F00103002B28
:10A94C0011D00A9B002B0ED006E00A9B013B0A9308
:10A95C0020210398FFF7EEFE0A9B002B03D0069AEA
:10A96C000A9B9A42F1D300BF09B05DF804FB00BF0B
:10A97C00BCDA020000B589B00590049103920293F1
:10A98C00049B002BB8BF5B4206930123079307E09F
:10A99C00039B069A92FBF3F30693079B01330793F1
:10A9AC00039B069A9A42F3DA029A079B9A4201D9C0
:10A9BC00029B07930A9B002B0AD0049B002B04DB01
:10A9CC000B9B03F00403002B02D00A9B013B0A9360
:10A9DC000B9B03F00203002B02D0029B002B16D022
:10A9EC000B9B03F00103002B11D10A9B002B0ED003
:10A9FC0006E00A9B013B0A9320210598FFF79AFE7B
:10AA0C000A9B002B03D0079A0A9B9A42F1D3049B12
:10AA1C00002B07DA049B5B4204932D210598FFF76A
:10AA2C0089FE08E00B9B03F00403002B03D02B21C1
:10AA3C000598FFF77FFE0B9B03F00203002B19D048
:10AA4C000B9B03F00103002B14D1029B002B11D1A3
:10AA5C000A9B002B0ED006E00A9B013B0A93302187
:10AA6C000598FFF767FE0A9B002B03D0079A0A9BF9
:10AA7C009A42F1D304990B9B01930A9B0093029B7E
:10AA8C00039A0598FFF7DEFE00BF09B05DF804FBE2
:10AA9C0000B58FB0059004910392059B002B04D157
:10AAAC00AD494FF4A270FFF734FC059B5B69002B9A
:10AABC0004D1A9494FF4A370FFF72BFC059B1B682D
:10AACC00002B04D1A44940F24710FFF722FC059B50
:10AADC005B68002B04D1A0494FF4A470FFF719FC5C
:10AAEC00049B002B00F09381049B1B788DF837306E
:10AAFC00049B013304939DF83730002B00F07E81CA
:10AB0C009DF83730252B40F06D8100230A930123EB
:10AB1C000C93049B1B788DF837309DF83730302B15
:10AB2C000DD0302B1BDC2B2B11D02D2B17D10A9BCE
:10AB3C0043F001030A93049B0133049312E00A9B34
:10AB4C0043F002030A93049B013304930AE00A9B2B
:10AB5C0043F004030A93049B0133049302E00023A3
:10AB6C000C9300BF0C9B002BD3D1002309939DF8B1
:10AB7C0037302A2B0CD1039B1B68191D039A1160CB
:10AB8C001B68099A13440993049B013304931AE03C
:10AB9C00049B1B788DF837309DF837302F2B12D94A
:10ABAC009DF83730392B0ED8049B01330493099A46
:10ABBC0013469B0013445B001A469DF83730134430
:10ABCC00303B0993D3E700230B93049B1B788DF840
:10ABDC0037309DF837302E2B1DD1049B0133049355
:10ABEC00049B1B788DF837309DF837302F2B12D9FA
:10ABFC009DF83730392B0ED8049B013304930B9AF4
:10AC0C0013469B0013445B001A469DF837301344DF
:10AC1C00303B0B93E4E7049B1B788DF837309DF8A1
:10AC2C0037306C2B03D09DF83730682B07D1049B41
:10AC3C0001330493049B1B788DF83730EFE79DF8B4
:10AC4C003730252B00F0C480252BC0F2C680782B22
:10AC5C0000F3C380582BC0F2C080583B202B00F26D
:10AC6C00BC8001A252F823F069AD0200E7AD0200EE
:10AC7C00E7AD0200E7AD0200E7AD0200E7AD020070
:10AC8C00E7AD0200E7AD0200E7AD0200E7AD020060
:10AC9C00E7AD0200F9AC02001BAD0200E7AD02000B
:10ACAC00E7AD0200E7AD0200E7AD02001BAD02000C
:10ACBC00E7AD0200E7AD0200E7AD0200E7AD020030
:10ACCC00E7AD0200E7AD0200A9AD0200E7AD02005E
:10ACDC00E7AD02008DAD0200E7AD02003FAD020012
:10ACEC00E7AD0200E7AD020069AD0200039B1B68F3
:10ACFC00191D039A11601B680C930C9B8DF81F3067
:10AD0C009DF81F3019460598FFF714FD66E0039B6C
:10AD1C001B68191D039A11601B680C930A9B019305
:10AD2C00099B00930B9B0A220C990598FFF722FEB6
:10AD3C0054E0039B1B68191D039A11601B680C934C
:10AD4C000C990A9B0193099B00930B9B0A22059873
:10AD5C00FFF778FD42E000BF7CDA0200039B1B6822
:10AD6C00191D039A11601B680C930C990A9B019393
:10AD7C00099B00930B9B10220598FFF763FD2DE0B8
:10AD8C00039B1B68191D039A11601B6808930A9B8F
:10AD9C00099A08990598FFF7F3FC1FE0039B1B68C1
:10ADAC00191D039A11601B680C9330210598FFF74D
:10ADBC00C1FC78210598FFF7BDFC0C990023019389
:10ADCC0008230093082310220598FFF73BFD05E0AC
:10ADDC0025210598FFF7AEFC00E000BF049B013372
:10ADEC00049305E09DF8373019460598FFF7A2FC4F
:10ADFC00049B1B78002B7FF477AE00E000BF059B13
:10AE0C001B7B002B04D00598FFF738FC00E000BF3B
:10AE1C000FB05DF804FB00BF00B583B00190019842
:10AE2C00FFF754FB0346184603B05DF804FB00B56E
:10AE3C008BB001900091019B1B8A043B0793009AF5
:10AE4C00079B1344DA1C079BB2FBF3F38DF81B3002
:10AE5C000198FFF797FB0590059B002B01D1002370
:10AE6C0038E0059B00221A71059B01225A71079B41
:10AE7C009AB2059BDA80059B09939DF81B30013B28
:10AE8C000493099B019A1A60002308931DE0019812
:10AE9C00FFF778FB0390039B002B0ED0059B5B798F
:10AEAC000133DAB2059B5A71099B039A1A60039B12
:10AEBC00019A1A60039B099304E0059800F00EF8C0
:10AECC00002307E0089B01330893089A049B9A42DD
:10AEDC00DDD3059B18460BB05DF804FB00B58BB0B9
:10AEEC000190019B0793079B5B798DF81B30019BAD
:10AEFC0008939DF81B30013B05930023099305E053
:10AF0C00089B1B680893099B01330993099A059BBD
:10AF1C009A42F5D3089B1B680493019B089300236A
:10AF2C0009930BE0089B1B68039308990498FFF79F
:10AF3C0071FB039B0893099B013309939DF81B300C
:10AF4C00099A9A42EED300BF00BF0BB05DF804FB28
:10AF5C0000B585B00190019B0393039B0433012141
:10AF6C001846FFF734FA00BF05B05DF804FB00B5D6
:10AF7C0087B00190019B0593059B04330121184672
:10AF8C00FFF73DFA0346039303AB0493049B1B7832
:10AF9C00002B02D10198FFF7A1FF00BF07B05DF8AD
:10AFAC0004FB000000B591B0039002910192009354
:10AFBC00039B002B03D14349B620FFF7AAF9039B4F
:10AFCC000993039B0F93099BDB881A46099B5B79BA
:10AFDC0002FB03F3043B0893009A089B9A4203D3A9
:10AFEC003849C420FFF795F9099BDB880793009B30
:10AFFC001A1D079BB2FBF3F30E93009B0433079AC5
:10B00C00B3FBF2F2079901FB02F29B1A0D93019B21
:10B01C001A68009B1344089A9A4203D2089A009B20
:10B02C00D31A01E0019B1B680C93019B0C9A1A60CC
:10B03C0005E00F9B1B680F930E9B013B0E930E9B21
:10B04C00002BF6D100230B93079A0D9BD31A0A936E
:10B05C000A9A0C9B934228BF13460A932AE0029A41
:10B06C000B9B134406930F9A0D9B134404330593C7
:10B07C009DF84830002B05D00A9A0599069802F0E5
:10B08C0069F904E00A9A0699059802F063F900231D
:10B09C000D930F9B1B680F930C9A0A9BD31A0C935E
:10B0AC000B9A0A9B13440B93079A0C9B934228BF51
:10B0BC0013460A930C9B002BD1D100BF00BF11B0DB
:10B0CC005DF804FBCCDA020000B589B00590049160
:10B0DC0003920293039B079307AA00230093029BFE
:10B0EC0004990598FFF75EFF079B039A9A4203D0D9
:10B0FC000349F620FFF70DF900BF09B05DF804FB1A
:10B10C00CCDA020000B589B0059004910392029349
:10B11C00039B079307AA01230093029B04990598AC
:10B12C00FFF740FF079B039A9A4204D004494FF45F
:10B13C008070FFF7EEF800BF09B05DF804FB00BFAC
:10B14C00CCDA020082B003468DF807309DF8073048
:10B15C0003F01F0206499DF907305B09012000FA34
:10B16C0002F2603341F8232000BF02B0704700BFE9
:10B17C0000E100E000B583B00190019B002B03D1EE
:10B18C0006497220FFF7C5F8019B00221A60BFF335
:10B19C005F8F00BF00BF03B05DF804FB60DB0200F3
:10B1AC0041DF704700BF184600B585B000238DF80D
:10B1BC0003300DF103031846FFF75EF8F1EE103A79
:10B1CC000193019B0393039B23F09F030293029B28
:10B1DC00E1EE103A00BFBFF35F8F00BF2620FFF7F0
:10B1EC00B1FF9DF803301846FFF75CF8039B03F0A2
:10B1FC000703002B03D004497D20FFF78AF800BF1A
:10B20C0005B05DF804FB00BFA0DB020008B5064BDF
:10B21C0000221A700548FFF7ADFF0549054800F0FC
:10B22C004DF80023184608BD78200020742000201B
:10B23C00E8DB02007C20002000B583B0FFF7B4FFF0
:10B24C0001F08CFD0346002B0ED0FFF7A9FF0190F7
:10B25C00019B002B0ED0019B022B0BD007494FF406
:10B26C00B070FFF756F805E020BF00BF40BF00BF2D
:10B27C0020BF00BF00BF03B05DF804FBA0DB0200E1
:10B28C0082B00190019B9B6800229A60019B9B6895
:10B29C0000221A61019B9B6800225A61019B9B68EA
:10B2AC000022DA60019B9B6800225A60019B9B681C
:10B2BC0000221A6000BF02B07047000000B583B0D6
:10B2CC0001900091019B002B03D110495020FFF7F6
:10B2DC0020F8009B002B03D10C495120FFF719F8E3
:10B2EC00019B009A1A60019B1B681A68019B5A60AB
:10B2FC00019B5A68019B1B685B689A4202D1019BB7
:10B30C0000225A6000BF03B05DF804FBF4DB0200BE
:10B31C0000B583B00190019B002B03D1144963202D
:10B32C00FEF7F7FF019B1B68002B03D1104964202B
:10B33C00FEF7EFFF019B5B68002B14D0019B5B6851
:10B34C001A46019B1B689B6813441A46019B5A6062
:10B35C00019B5A68019B1B685B689A4204D1019B54
:10B36C0000225A6000E000BF03B05DF804FB00BF90
:10B37C00F4DB020000B585B00190019800F00EF8E6
:10B38C000390039B002B01D0039B00E0024B18465B
:10B39C0005B05DF804FB00BF50DC020086B00190E4
:10B3AC00164B0593164B04931FE0049A059BD31A76
:10B3BC00DB10DA0F13445B10DB00059A1344039384
:10B3CC00039B1B680293029A019B9A4202D9039B2E
:10B3DC0004930AE0029A019B9A4203D2039B08331E
:10B3EC00059302E0039B5B6804E0059A049B9A4278
:10B3FC00DBD30023184606B0704700BF50E00200B4
:10B40C0078E1020000B585B00190019B002B0AD0B9
:10B41C00074B43F001030393019B9B010293039B96
:10B42C000298984700E000BF05B05DF804FB00BF30
:10B43C0090E1020000B583B00190019B002B0AD073
:10B44C004FF47A70FFF7DEFF019B013B0193019BE8
:10B45C00002BF5D100E000BF03B05DF804FB08B58C
:10B46C0001F0D8FA00BF08BD00B589B00390029175
:10B47C000192019B002B33D00023079303230693E7
:10B48C00029A079B1344019A1946002001F072FAA4
:10B49C000590079A059B13440793019A059BD31AB1
:10B4AC000193059B002B13D10F4B1B7883F00103E9
:10B4BC00DBB2002B13D10120FFF7BCFF069B013B35
:10B4CC000693069B002B03D1074B00221A7007E052
:10B4DC00054B01221A70019B002BD1D100E000BF5B
:10B4EC0000BF09B05DF804FB8420002000B585B0D6
:10B4FC0003900291054B00934023054A029903984F
:10B50C0000F012F800BF05B05DF804FB75B4020042
:10B51C008820002082B0019000BF02B0704782B03A
:10B52C00019000BF02B0704700B5A1B00590049126
:10B53C00039202930498FFF70BFD039B1593029B58
:10B54C0016930023179300238DF860300023199372
:10B55C00229B1A9300231F930FA91F9B0822049868
:10B56C00FFF7D0FD08231F93119B1293BDF84030B9
:10B57C00ADF84C30BDF84230ADF84E3000238DF8AC
:10B58C0051309DF83C3003F00303DBB2012B26D184
:10B59C000F9BC3F395231C939DF83C30C3F3C2035C
:10B5AC00DBB28DF85030BDF83C30C3F38313DBB203
:10B5BC001B931B9B9A0009A91F9B0498FFF7A2FDE4
:10B5CC001B9B9B001F9A13441F9312AA09A915AB2E
:10B5DC00009313461B9A1C9800F0AEFF2FE09DF8C9
:10B5EC003C3003F00303DBB2022B28D1BDF83E3014
:10B5FC00C3F389139BB21E939DF83C30C3F3C20373
:10B60C00DBB28DF850301E9B082B28BF08231D93EE
:10B61C0007A91F9B1D9A0498FFF774FD1F9A1D9B89
:10B62C0013441F931E9A1D9BD31A1E9315AB12AA7B
:10B63C0007A81D9901F022F81E9B002BE3D104985A
:10B64C00FFF795FC00BF21B05DF804FB00B583B09B
:10B65C000190019B1B781A460C4B9B5C002B05D070
:10B66C00019B04331846FDF77DFE0BE0019B1B7814
:10B67C001A46064B9B5C002B04D1019B0C331846DD
:10B68C00FDF732F800BF03B05DF804FB581E002034
:10B69C0000B587B00390029113468DF80730002354
:10B6AC000593039B1B781A46114B9B5C002B09D00E
:10B6BC00039B04339DF8072002991846FDF780FE82
:10B6CC0005900FE0039B1B781A46094B9B5C002BE3
:10B6DC0008D1039B0C339DF8072002991846FDF7FF
:10B6EC0079F80590059B184607B05DF804FB00BF80
:10B6FC00581E002082B001900091034B01221A7059
:10B70C0000BF02B0704700BF0821002030B58DB0DB
:10B71C0003468DF807301A4B02AC1D460FCD0FC4F3
:10B72C0095E80F0084E80F00062302934FF0FF33D7
:10B73C0003934FF0FF3304934FF0FF3305934FF017
:10B74C00EB7308939DF80730002B01D00D4A00E0F5
:10B75C00002202AB19460C48FBF796FE0B900B9B94
:10B76C000A930A9B002B04D0084A43210A98FEF73F
:10B77C001DF8074A9DF80730137000BF0DB030BD9F
:10B78C00E8E1020001B70200741D002098E10200FC
:10B79C000921002000B583B001238DF807309DF8F6
:10B7AC0007301846FFF7B2FF00BF03B05DF804FB8B
:10B7BC0000B589B0039002910192019B8DF81F3066
:10B7CC00124B00221A709DF81F301A46029910482D
:10B7DC00FFF75EFF0690069B0593059B002B04D09C
:10B7EC000C4A53210598FDF7E1FF00BF0A4B1B786B
:10B7FC00002B07D0054B1B78DBB283F00103DBB2C7
:10B80C00002BF3D100BF09B05DF804FB0821002028
:10B81C00741D002098E102000921002000B585B0BC
:10B82C0003900291054B00934023054A029903981B
:10B83C00FFF77AFE00BF05B05DF804FBBDB7020050
:10B84C00C820002082B0019000BF02B070470000F9
:10B85C0000B583B001900548FFF7F8FE0020FFF714
:10B86C0055FF00BF03B05DF804FB00BF741D002042
:10B87C0082B00190019BDB6801225A7100BF02B0BB
:10B88C007047000000B583B04FF0FF330193FFF712
:10B89C00E6FD0421114800F089FD0190019B002B6D
:10B8AC0003DA0F494120FEF734FD0C48FFF7E0FFA7
:10B8BC00FFF770FF04210B4800F078FD0190019B0D
:10B8CC00002B03DA06494820FEF723FD0548FFF755
:10B8DC00CFFF00BF03B05DF804FB00BF18D502001A
:10B8EC0038E2020028D5020000B583B00190009127
:10B8FC00019B1B681B6800990198984700BF03B017
:10B90C005DF804FB00B583B00190019B1B689B683C
:10B91C000198984700BF03B05DF804FB82B001901A
:10B92C000B468DF80330019BDB689DF803201A71E0
:10B93C0000BF02B0704782B00190019BDB681B799D
:10B94C00184602B0704782B00190019BDB685B79AE
:10B95C00184602B07047000000B585B00190009108
:10B96C00154BFF229A60144B00221A60124B0022D6
:10B97C005A60114B0022C3F818240F4B0022C3F855
:10B98C0014240D4B002283F820240C48FFF744FAB2
:10B99C000390039B002B01D0039B08E00848FFF7A2
:10B9AC006FFC084A084BD31ADB0802930023184695
:10B9BC0005B05DF804FB00BF74220020ECD402003B
:10B9CC008CE20200ECD402008CD40200024A034B3D
:10B9DC00D31ADB0818467047ECD402008CD4020052
:10B9EC0000B587B001900B468DF803309DF80330FD
:10B9FC00002B1FD0FFF7EAFF04900023059313E000
:10BA0C00059B9B000E4A13440393039B1B881A4609
:10BA1C00019B1B689A4204D1019B059A1A60002372
:10BA2C0009E0059B01330593059A049B9A42E7D3E1
:10BA3C00052300E00023184607B05DF804FB00BFA7
:10BA4C00701D002000B585B001900B468DF80330B9
:10BA5C009DF8032001AB11461846FFF7C1FF0346C2
:10BA6C00002B07D1019BDB00054A13440393039B76
:10BA7C001B6800E00023184605B05DF804FB00BF0E
:10BA8C008CD4020084B001900B468DF80330019BDE
:10BA9C00DB00174A134402939DF80330013B032B40
:10BAAC001CD801A252F823F0C5BA0200CDBA02008C
:10BABC00D5BA0200DFBA020002238DF80F3011E074
:10BACC0004238DF80F300DE0029B1B798DF80F309D
